{
  "_format": "hh3-artifact-1",
  "contractName": "SimpleNFT",
  "sourceName": "contracts/ERC721.sol",
  "abi": [
    {
      "inputs": [
        {
          "internalType": "string",
          "name": "_name",
          "type": "string"
        },
        {
          "internalType": "string",
          "name": "_symbol",
          "type": "string"
        }
      ],
      "stateMutability": "nonpayable",
      "type": "constructor"
    },
    {
      "anonymous": false,
      "inputs": [
        {
          "indexed": true,
          "internalType": "address",
          "name": "owner",
          "type": "address"
        },
        {
          "indexed": true,
          "internalType": "address",
          "name": "approved",
          "type": "address"
        },
        {
          "indexed": true,
          "internalType": "uint256",
          "name": "tokenId",
          "type": "uint256"
        }
      ],
      "name": "Approval",
      "type": "event"
    },
    {
      "anonymous": false,
      "inputs": [
        {
          "indexed": true,
          "internalType": "address",
          "name": "owner",
          "type": "address"
        },
        {
          "indexed": true,
          "internalType": "address",
          "name": "operator",
          "type": "address"
        },
        {
          "indexed": false,
          "internalType": "bool",
          "name": "approved",
          "type": "bool"
        }
      ],
      "name": "ApprovalForAll",
      "type": "event"
    },
    {
      "anonymous": false,
      "inputs": [
        {
          "indexed": true,
          "internalType": "address",
          "name": "from",
          "type": "address"
        },
        {
          "indexed": true,
          "internalType": "address",
          "name": "to",
          "type": "address"
        },
        {
          "indexed": true,
          "internalType": "uint256",
          "name": "tokenId",
          "type": "uint256"
        }
      ],
      "name": "Transfer",
      "type": "event"
    },
    {
      "inputs": [
        {
          "internalType": "address",
          "name": "to",
          "type": "address"
        },
        {
          "internalType": "uint256",
          "name": "tokenId",
          "type": "uint256"
        }
      ],
      "name": "approve",
      "outputs": [],
      "stateMutability": "nonpayable",
      "type": "function"
    },
    {
      "inputs": [
        {
          "internalType": "address",
          "name": "owner",
          "type": "address"
        }
      ],
      "name": "balanceOf",
      "outputs": [
        {
          "internalType": "uint256",
          "name": "",
          "type": "uint256"
        }
      ],
      "stateMutability": "view",
      "type": "function"
    },
    {
      "inputs": [
        {
          "internalType": "uint256",
          "name": "tokenId",
          "type": "uint256"
        }
      ],
      "name": "getApproved",
      "outputs": [
        {
          "internalType": "address",
          "name": "",
          "type": "address"
        }
      ],
      "stateMutability": "view",
      "type": "function"
    },
    {
      "inputs": [
        {
          "internalType": "address",
          "name": "owner",
          "type": "address"
        },
        {
          "internalType": "address",
          "name": "operator",
          "type": "address"
        }
      ],
      "name": "isApprovedForAll",
      "outputs": [
        {
          "internalType": "bool",
          "name": "",
          "type": "bool"
        }
      ],
      "stateMutability": "view",
      "type": "function"
    },
    {
      "inputs": [
        {
          "internalType": "address",
          "name": "to",
          "type": "address"
        },
        {
          "internalType": "string",
          "name": "uri",
          "type": "string"
        }
      ],
      "name": "mint",
      "outputs": [
        {
          "internalType": "uint256",
          "name": "",
          "type": "uint256"
        }
      ],
      "stateMutability": "nonpayable",
      "type": "function"
    },
    {
      "inputs": [],
      "name": "name",
      "outputs": [
        {
          "internalType": "string",
          "name": "",
          "type": "string"
        }
      ],
      "stateMutability": "view",
      "type": "function"
    },
    {
      "inputs": [
        {
          "internalType": "uint256",
          "name": "tokenId",
          "type": "uint256"
        }
      ],
      "name": "ownerOf",
      "outputs": [
        {
          "internalType": "address",
          "name": "",
          "type": "address"
        }
      ],
      "stateMutability": "view",
      "type": "function"
    },
    {
      "inputs": [
        {
          "internalType": "address",
          "name": "operator",
          "type": "address"
        },
        {
          "internalType": "bool",
          "name": "approved",
          "type": "bool"
        }
      ],
      "name": "setApprovalForAll",
      "outputs": [],
      "stateMutability": "nonpayable",
      "type": "function"
    },
    {
      "inputs": [],
      "name": "symbol",
      "outputs": [
        {
          "internalType": "string",
          "name": "",
          "type": "string"
        }
      ],
      "stateMutability": "view",
      "type": "function"
    },
    {
      "inputs": [
        {
          "internalType": "uint256",
          "name": "tokenId",
          "type": "uint256"
        }
      ],
      "name": "tokenURI",
      "outputs": [
        {
          "internalType": "string",
          "name": "",
          "type": "string"
        }
      ],
      "stateMutability": "view",
      "type": "function"
    },
    {
      "inputs": [
        {
          "internalType": "address",
          "name": "from",
          "type": "address"
        },
        {
          "internalType": "address",
          "name": "to",
          "type": "address"
        },
        {
          "internalType": "uint256",
          "name": "tokenId",
          "type": "uint256"
        }
      ],
      "name": "transferFrom",
      "outputs": [],
      "stateMutability": "nonpayable",
      "type": "function"
    }
  ],
  "bytecode": "0x608060405234801561000f575f5ffd5b50604051610f27380380610f2783398101604081905261002e916100eb565b5f61003983826101d4565b50600161004682826101d4565b50505061028e565b634e487b7160e01b5f52604160045260245ffd5b5f82601f830112610071575f5ffd5b81516001600160401b0381111561008a5761008a61004e565b604051601f8201601f19908116603f011681016001600160401b03811182821017156100b8576100b861004e565b6040528181528382016020018510156100cf575f5ffd5b8160208501602083015e5f918101602001919091529392505050565b5f5f604083850312156100fc575f5ffd5b82516001600160401b03811115610111575f5ffd5b61011d85828601610062565b602085015190935090506001600160401b0381111561013a575f5ffd5b61014685828601610062565b9150509250929050565b600181811c9082168061016457607f821691505b60208210810361018257634e487b7160e01b5f52602260045260245ffd5b50919050565b601f8211156101cf57805f5260205f20601f840160051c810160208510156101ad5750805b601f840160051c820191505b818110156101cc575f81556001016101b9565b50505b505050565b81516001600160401b038111156101ed576101ed61004e565b610201816101fb8454610150565b84610188565b6020601f821160018114610233575f831561021c5750848201515b5f19600385901b1c1916600184901b1784556101cc565b5f84815260208120601f198516915b828110156102625787850151825560209485019460019092019101610242565b508482101561027f57868401515f19600387901b60f8161c191681555b50505050600190811b01905550565b610c8c8061029b5f395ff3fe608060405234801561000f575f5ffd5b50600436106100a6575f3560e01c806370a082311161006e57806370a082311461012e57806395d89b411461014f578063a22cb46514610157578063c87b56dd1461016a578063d0def5211461017d578063e985e9c514610190575f5ffd5b806306fdde03146100aa578063081812fc146100c8578063095ea7b3146100f357806323b872dd146101085780636352211e1461011b575b5f5ffd5b6100b26101b3565b6040516100bf9190610884565b60405180910390f35b6100db6100d63660046108b9565b61023e565b6040516001600160a01b0390911681526020016100bf565b6101066101013660046108eb565b610295565b005b610106610116366004610913565b610355565b6100db6101293660046108b9565b610557565b61014161013c36600461094d565b610591565b6040519081526020016100bf565b6100b26105fc565b61010661016536600461096d565b610609565b6100b26101783660046108b9565b610674565b61014161018b3660046109ba565b610745565b6101a361019e366004610a7e565b610857565b60405190151581526020016100bf565b5f80546101bf90610aaf565b80601f01602080910402602001604051908101604052809291908181526020018280546101eb90610aaf565b80156102365780601f1061020d57610100808354040283529160200191610236565b820191905f5260205f20905b81548152906001019060200180831161021957829003601f168201915b505050505081565b5f818152600360205260408120546001600160a01b031661027a5760405162461bcd60e51b815260040161027190610ae7565b60405180910390fd5b505f908152600560205260409020546001600160a01b031690565b5f61029f82610557565b9050336001600160a01b03821614806102bd57506102bd8133610857565b6102fa5760405162461bcd60e51b815260206004820152600e60248201526d139bdd08185d5d1a1bdc9a5e995960921b6044820152606401610271565b5f8281526005602052604080822080546001600160a01b0319166001600160a01b0387811691821790925591518593918516917f8c5be1e5ebec7d5bd14f71427d1e84f3dd0314c0f7b2291e5b200ac8c7c3b92591a4505050565b5f61035f82610557565b9050336001600160a01b0382161480610391575061037c8261023e565b6001600160a01b0316336001600160a01b0316145b806103a157506103a18133610857565b6103de5760405162461bcd60e51b815260206004820152600e60248201526d139bdd08185d5d1a1bdc9a5e995960921b6044820152606401610271565b806001600160a01b0316846001600160a01b0316146104315760405162461bcd60e51b815260206004820152600f60248201526e24b731b7b93932b1ba1037bbb732b960891b6044820152606401610271565b6001600160a01b0383166104875760405162461bcd60e51b815260206004820152601f60248201527f43616e6e6f74207472616e7366657220746f207a65726f2061646472657373006044820152606401610271565b5f82815260056020908152604080832080546001600160a01b03191690556001600160a01b0387168352600490915281208054600192906104c9908490610b29565b90915550506001600160a01b0383165f9081526004602052604081208054600192906104f6908490610b3c565b90915550505f8281526003602052604080822080546001600160a01b0319166001600160a01b0387811691821790925591518593918816917fddf252ad1be2c89b69c2b068fc378daa952ba7f163c4a11628f55a4df523b3ef91a450505050565b5f818152600360205260408120546001600160a01b03168061058b5760405162461bcd60e51b815260040161027190610ae7565b92915050565b5f6001600160a01b0382166105e15760405162461bcd60e51b815260206004820152601660248201527516995c9bc81859191c995cdcc81b9bdd081d985b1a5960521b6044820152606401610271565b506001600160a01b03165f9081526004602052604090205490565b600180546101bf90610aaf565b335f8181526006602090815260408083206001600160a01b03871680855290835292819020805460ff191686151590811790915590519081529192917f17307eab39ab6107e8899845ad3d59bd9653f200f220920489ca2b5937696c31910160405180910390a35050565b5f818152600360205260409020546060906001600160a01b03166106aa5760405162461bcd60e51b815260040161027190610ae7565b5f82815260076020526040902080546106c290610aaf565b80601f01602080910402602001604051908101604052809291908181526020018280546106ee90610aaf565b80156107395780601f1061071057610100808354040283529160200191610739565b820191905f5260205f20905b81548152906001019060200180831161071c57829003601f168201915b50505050509050919050565b5f6001600160a01b03831661079c5760405162461bcd60e51b815260206004820152601b60248201527f43616e6e6f74206d696e7420746f207a65726f206164647265737300000000006044820152606401610271565b600160025f8282546107ae9190610b3c565b90915550506002545f81815260036020908152604080832080546001600160a01b0319166001600160a01b0389169081179091558352600490915281208054600192906107fc908490610b3c565b90915550505f8181526007602052604090206108188482610b9b565b5060405181906001600160a01b038616905f907fddf252ad1be2c89b69c2b068fc378daa952ba7f163c4a11628f55a4df523b3ef908290a49392505050565b6001600160a01b039182165f90815260066020908152604080832093909416825291909152205460ff1690565b602081525f82518060208401528060208501604085015e5f604082850101526040601f19601f83011684010191505092915050565b5f602082840312156108c9575f5ffd5b5035919050565b80356001600160a01b03811681146108e6575f5ffd5b919050565b5f5f604083850312156108fc575f5ffd5b610905836108d0565b946020939093013593505050565b5f5f5f60608486031215610925575f5ffd5b61092e846108d0565b925061093c602085016108d0565b929592945050506040919091013590565b5f6020828403121561095d575f5ffd5b610966826108d0565b9392505050565b5f5f6040838503121561097e575f5ffd5b610987836108d0565b91506020830135801515811461099b575f5ffd5b809150509250929050565b634e487b7160e01b5f52604160045260245ffd5b5f5f604083850312156109cb575f5ffd5b6109d4836108d0565b9150602083013567ffffffffffffffff8111156109ef575f5ffd5b8301601f810185136109ff575f5ffd5b803567ffffffffffffffff811115610a1957610a196109a6565b604051601f8201601f19908116603f0116810167ffffffffffffffff81118282101715610a4857610a486109a6565b604052818152828201602001871015610a5f575f5ffd5b816020840160208301375f602083830101528093505050509250929050565b5f5f60408385031215610a8f575f5ffd5b610a98836108d0565b9150610aa6602084016108d0565b90509250929050565b600181811c90821680610ac357607f821691505b602082108103610ae157634e487b7160e01b5f52602260045260245ffd5b50919050565b602080825260149082015273151bdad95b88191bd95cc81b9bdd08195e1a5cdd60621b604082015260600190565b634e487b7160e01b5f52601160045260245ffd5b8181038181111561058b5761058b610b15565b8082018082111561058b5761058b610b15565b601f821115610b9657805f5260205f20601f840160051c81016020851015610b745750805b601f840160051c820191505b81811015610b93575f8155600101610b80565b50505b505050565b815167ffffffffffffffff811115610bb557610bb56109a6565b610bc981610bc38454610aaf565b84610b4f565b6020601f821160018114610bfb575f8315610be45750848201515b5f19600385901b1c1916600184901b178455610b93565b5f84815260208120601f198516915b82811015610c2a5787850151825560209485019460019092019101610c0a565b5084821015610c4757868401515f19600387901b60f8161c191681555b50505050600190811b0190555056fea2646970667358221220e233633650651d4a2db97e1a9eada69158d61cb042237e57405bf322ea6cc75564736f6c634300081c0033",
  "linkReferences": {},
  "deployedLinkReferences": {},
  "immutableReferences": {},
  "inputSourceName": "project/contracts/ERC721.sol",
  "buildInfoId": "solc-0_8_28-a309816fb699f90c66908a85ae8c42d520490974"
}